{
  "contractName": "HealthCare",
  "abi": [
    {
      "inputs": [],
      "payable": false,
      "stateMutability": "nonpayable",
      "type": "constructor"
    },
    {
      "constant": true,
      "inputs": [],
      "name": "HealthNoteCount",
      "outputs": [
        {
          "internalType": "uint256",
          "name": "",
          "type": "uint256"
        }
      ],
      "payable": false,
      "stateMutability": "view",
      "type": "function"
    },
    {
      "constant": true,
      "inputs": [],
      "name": "admin",
      "outputs": [
        {
          "internalType": "address",
          "name": "",
          "type": "address"
        }
      ],
      "payable": false,
      "stateMutability": "view",
      "type": "function"
    },
    {
      "constant": true,
      "inputs": [],
      "name": "doctorCount",
      "outputs": [
        {
          "internalType": "uint256",
          "name": "",
          "type": "uint256"
        }
      ],
      "payable": false,
      "stateMutability": "view",
      "type": "function"
    },
    {
      "constant": true,
      "inputs": [
        {
          "internalType": "address",
          "name": "",
          "type": "address"
        }
      ],
      "name": "doctors",
      "outputs": [
        {
          "internalType": "string",
          "name": "name",
          "type": "string"
        },
        {
          "internalType": "bool",
          "name": "isVerified",
          "type": "bool"
        }
      ],
      "payable": false,
      "stateMutability": "view",
      "type": "function"
    },
    {
      "constant": true,
      "inputs": [
        {
          "internalType": "uint256",
          "name": "",
          "type": "uint256"
        }
      ],
      "name": "healthNotes",
      "outputs": [
        {
          "internalType": "uint256",
          "name": "id",
          "type": "uint256"
        },
        {
          "internalType": "address",
          "name": "patient",
          "type": "address"
        },
        {
          "internalType": "address",
          "name": "doctor",
          "type": "address"
        },
        {
          "internalType": "string",
          "name": "title",
          "type": "string"
        },
        {
          "internalType": "string",
          "name": "description",
          "type": "string"
        }
      ],
      "payable": false,
      "stateMutability": "view",
      "type": "function"
    },
    {
      "constant": true,
      "inputs": [],
      "name": "patientCount",
      "outputs": [
        {
          "internalType": "uint256",
          "name": "",
          "type": "uint256"
        }
      ],
      "payable": false,
      "stateMutability": "view",
      "type": "function"
    },
    {
      "constant": true,
      "inputs": [
        {
          "internalType": "address",
          "name": "",
          "type": "address"
        }
      ],
      "name": "patients",
      "outputs": [
        {
          "internalType": "string",
          "name": "name",
          "type": "string"
        },
        {
          "internalType": "bool",
          "name": "isVerified",
          "type": "bool"
        }
      ],
      "payable": false,
      "stateMutability": "view",
      "type": "function"
    },
    {
      "constant": false,
      "inputs": [
        {
          "internalType": "address",
          "name": "_address",
          "type": "address"
        }
      ],
      "name": "verifyDoctor",
      "outputs": [],
      "payable": false,
      "stateMutability": "nonpayable",
      "type": "function"
    },
    {
      "constant": false,
      "inputs": [
        {
          "internalType": "string",
          "name": "_name",
          "type": "string"
        }
      ],
      "name": "createDoctor",
      "outputs": [],
      "payable": false,
      "stateMutability": "nonpayable",
      "type": "function"
    },
    {
      "constant": false,
      "inputs": [
        {
          "internalType": "address",
          "name": "_patientAddress",
          "type": "address"
        },
        {
          "internalType": "string",
          "name": "_name",
          "type": "string"
        }
      ],
      "name": "createPatient",
      "outputs": [],
      "payable": false,
      "stateMutability": "nonpayable",
      "type": "function"
    },
    {
      "constant": false,
      "inputs": [
        {
          "internalType": "address",
          "name": "_patient",
          "type": "address"
        },
        {
          "internalType": "string",
          "name": "_title",
          "type": "string"
        },
        {
          "internalType": "string",
          "name": "_description",
          "type": "string"
        }
      ],
      "name": "writeNote",
      "outputs": [],
      "payable": false,
      "stateMutability": "nonpayable",
      "type": "function"
    }
  ],
  "bytecode": "0x608060405260006001556000600355600060055534801561001f57600080fd5b50336000806101000a81548173ffffffffffffffffffffffffffffffffffffffff021916908373ffffffffffffffffffffffffffffffffffffffff1602179055506110f78061006f6000396000f3fe608060405234801561001057600080fd5b50600436106100a95760003560e01c8063a0303c4111610071578063a0303c41146103ed578063a9583c221461040b578063b83d3fbd146104d3578063d80cb05c14610645578063f3c7807014610689578063f851a44014610764576100a9565b80630869cfbc146100ae5780630b354b091461017657806378522bc41461019457806379e2eaa9146101b25780638352a58614610332575b600080fd5b6100f0600480360360208110156100c457600080fd5b81019080803573ffffffffffffffffffffffffffffffffffffffff1690602001909291905050506107ae565b604051808060200183151515158152602001828103825284818151815260200191508051906020019080838360005b8381101561013a57808201518184015260208101905061011f565b50505050905090810190601f1680156101675780820380516001836020036101000a031916815260200191505b50935050505060405180910390f35b61017e610877565b6040518082815260200191505060405180910390f35b61019c61087d565b6040518082815260200191505060405180910390f35b6101de600480360360208110156101c857600080fd5b8101908080359060200190929190505050610883565b604051808681526020018573ffffffffffffffffffffffffffffffffffffffff1673ffffffffffffffffffffffffffffffffffffffff1681526020018473ffffffffffffffffffffffffffffffffffffffff1673ffffffffffffffffffffffffffffffffffffffff1681526020018060200180602001838103835285818151815260200191508051906020019080838360005b8381101561028c578082015181840152602081019050610271565b50505050905090810190601f1680156102b95780820380516001836020036101000a031916815260200191505b50838103825284818151815260200191508051906020019080838360005b838110156102f25780820151818401526020810190506102d7565b50505050905090810190601f16801561031f5780820380516001836020036101000a031916815260200191505b5097505050505050505060405180910390f35b6103eb6004803603602081101561034857600080fd5b810190808035906020019064010000000081111561036557600080fd5b82018360208201111561037757600080fd5b8035906020019184600183028401116401000000008311171561039957600080fd5b91908080601f016020809104026020016040519081016040528093929190818152602001838380828437600081840152601f19601f820116905080830192505050505050509192919290505050610a29565b005b6103f5610b23565b6040518082815260200191505060405180910390f35b61044d6004803603602081101561042157600080fd5b81019080803573ffffffffffffffffffffffffffffffffffffffff169060200190929190505050610b29565b604051808060200183151515158152602001828103825284818151815260200191508051906020019080838360005b8381101561049757808201518184015260208101905061047c565b50505050905090810190601f1680156104c45780820380516001836020036101000a031916815260200191505b50935050505060405180910390f35b610643600480360360608110156104e957600080fd5b81019080803573ffffffffffffffffffffffffffffffffffffffff1690602001909291908035906020019064010000000081111561052657600080fd5b82018360208201111561053857600080fd5b8035906020019184600183028401116401000000008311171561055a57600080fd5b91908080601f016020809104026020016040519081016040528093929190818152602001838380828437600081840152601f19601f820116905080830192505050505050509192919290803590602001906401000000008111156105bd57600080fd5b8201836020820111156105cf57600080fd5b803590602001918460018302840111640100000000831117156105f157600080fd5b91908080601f016020809104026020016040519081016040528093929190818152602001838380828437600081840152601f19601f820116905080830192505050505050509192919290505050610bf2565b005b6106876004803603602081101561065b57600080fd5b81019080803573ffffffffffffffffffffffffffffffffffffffff169060200190929190505050610d9e565b005b6107626004803603604081101561069f57600080fd5b81019080803573ffffffffffffffffffffffffffffffffffffffff169060200190929190803590602001906401000000008111156106dc57600080fd5b8201836020820111156106ee57600080fd5b8035906020019184600183028401116401000000008311171561071057600080fd5b91908080601f016020809104026020016040519081016040528093929190818152602001838380828437600081840152601f19601f820116905080830192505050505050509192919290505050610e5d565b005b61076c610fc0565b604051808273ffffffffffffffffffffffffffffffffffffffff1673ffffffffffffffffffffffffffffffffffffffff16815260200191505060405180910390f35b6004602052806000526040600020600091509050806000018054600181600116156101000203166002900480601f01602080910402602001604051908101604052809291908181526020018280546001816001161561010002031660029004801561085a5780601f1061082f5761010080835404028352916020019161085a565b820191906000526020600020905b81548152906001019060200180831161083d57829003601f168201915b5050505050908060010160009054906101000a900460ff16905082565b60055481565b60015481565b60066020528060005260406000206000915090508060000154908060010160009054906101000a900473ffffffffffffffffffffffffffffffffffffffff16908060020160009054906101000a900473ffffffffffffffffffffffffffffffffffffffff1690806003018054600181600116156101000203166002900480601f0160208091040260200160405190810160405280929190818152602001828054600181600116156101000203166002900480156109815780601f1061095657610100808354040283529160200191610981565b820191906000526020600020905b81548152906001019060200180831161096457829003601f168201915b505050505090806004018054600181600116156101000203166002900480601f016020809104026020016040519081016040528092919081815260200182805460018160011615610100020316600290048015610a1f5780601f106109f457610100808354040283529160200191610a1f565b820191906000526020600020905b815481529060010190602001808311610a0257829003601f168201915b5050505050905085565b60001515600260003373ffffffffffffffffffffffffffffffffffffffff1673ffffffffffffffffffffffffffffffffffffffff16815260200190815260200160002060010160009054906101000a900460ff16151514610a8957600080fd5b604051806040016040528082815260200160001515815250600260003373ffffffffffffffffffffffffffffffffffffffff1673ffffffffffffffffffffffffffffffffffffffff1681526020019081526020016000206000820151816000019080519060200190610afc92919061101d565b5060208201518160010160006101000a81548160ff02191690831515021790555090505050565b60035481565b6002602052806000526040600020600091509050806000018054600181600116156101000203166002900480601f016020809104026020016040519081016040528092919081815260200182805460018160011615610100020316600290048015610bd55780601f10610baa57610100808354040283529160200191610bd5565b820191906000526020600020905b815481529060010190602001808311610bb857829003601f168201915b5050505050908060010160009054906101000a900460ff16905082565b60011515600260003373ffffffffffffffffffffffffffffffffffffffff1673ffffffffffffffffffffffffffffffffffffffff16815260200190815260200160002060010160009054906101000a900460ff16151514610c5257600080fd5b610c5a610fe5565b6040518060a0016040528060055481526020018473ffffffffffffffffffffffffffffffffffffffff1681526020013373ffffffffffffffffffffffffffffffffffffffff168152602001838152602001828152506006600060055481526020019081526020016000206000820151816000015560208201518160010160006101000a81548173ffffffffffffffffffffffffffffffffffffffff021916908373ffffffffffffffffffffffffffffffffffffffff16021790555060408201518160020160006101000a81548173ffffffffffffffffffffffffffffffffffffffff021916908373ffffffffffffffffffffffffffffffffffffffff1602179055506060820151816003019080519060200190610d7892919061101d565b506080820151816004019080519060200190610d9592919061101d565b50905050505050565b6000809054906101000a900473ffffffffffffffffffffffffffffffffffffffff1673ffffffffffffffffffffffffffffffffffffffff163373ffffffffffffffffffffffffffffffffffffffff1614610df757600080fd5b6001600260008373ffffffffffffffffffffffffffffffffffffffff1673ffffffffffffffffffffffffffffffffffffffff16815260200190815260200160002060010160006101000a81548160ff021916908315150217905550610e5a610ff8565b50565b60011515600260003373ffffffffffffffffffffffffffffffffffffffff1673ffffffffffffffffffffffffffffffffffffffff16815260200190815260200160002060010160009054906101000a900460ff16151514610ebd57600080fd5b60001515600460008473ffffffffffffffffffffffffffffffffffffffff1673ffffffffffffffffffffffffffffffffffffffff16815260200190815260200160002060010160009054906101000a900460ff16151514610f1d57600080fd5b604051806040016040528082815260200160011515815250600460008473ffffffffffffffffffffffffffffffffffffffff1673ffffffffffffffffffffffffffffffffffffffff1681526020019081526020016000206000820151816000019080519060200190610f9092919061101d565b5060208201518160010160006101000a81548160ff021916908315150217905550905050610fbc61100a565b5050565b6000809054906101000a900473ffffffffffffffffffffffffffffffffffffffff1681565b6001600560008282540192505081905550565b60018060008282540192505081905550565b6001600360008282540192505081905550565b828054600181600116156101000203166002900490600052602060002090601f016020900481019282601f1061105e57805160ff191683800117855561108c565b8280016001018555821561108c579182015b8281111561108b578251825591602001919060010190611070565b5b509050611099919061109d565b5090565b6110bf91905b808211156110bb5760008160009055506001016110a3565b5090565b9056fea265627a7a72315820708a2bcf8ba747494861a5833acf328883b71990852fd85b5c237f6c7c63956364736f6c63430005100032",
  "source": "pragma solidity ^0.5.0;\n\n\ncontract HealthCare {\n    // admin account\n    //will be the address of the account that deploys the smart contract\n    address public admin;\n\n    //set the admin to the contract deployer\n    constructor() public {\n        admin = msg.sender;\n    }\n\n    // to check if he is an admin\n    modifier adminCheck() {\n        require(msg.sender == admin);\n        _;\n    }\n\n    // verifyPatient\n    //admin will verify if a person registered as patient is actually a patient\n    /*function verifyPatient(address _address) public adminCheck {\n        patients[_address].isVerified = true;\n        patientsCounter();\n    }*/\n\n    // verifyDoctor\n    //admin will verify if a person registered as doctor is actually a doctor\n    //doctorCount will be incremented by 1\n    function verifyDoctor(address _address) public adminCheck {\n        doctors[_address].isVerified = true;\n        doctorsCounter();\n    }\n\n    // DOCTOR\n    \n    //keep count of the number of doctors\n    uint256 public doctorCount = 0;\n    //map of sender address to doctor structure\n    mapping(address => Doctor) public doctors;\n    //struct containing doctor name and verified or not\n    struct Doctor {\n        string name;\n        bool isVerified;\n    }\n\n    //increase the count of the number of doctors existing on the blockchain\n    //'internal' keyword means this wont be available for the public to view\n    function doctorsCounter() internal {\n        doctorCount += 1;\n    }\n\n    //doctor will be created in the mapping with address as the key\n    function createDoctor(string memory _name) public {\n        //check if doctor has already been created\n        require(doctors[msg.sender].isVerified == false);\n        \n        doctors[msg.sender] = Doctor(_name, false);\n    }\n\n    // patient\n    \n    //keep track of number of patients\n    uint256 public patientCount = 0;\n    //mapping of address to patients\n    mapping(address => Patient) public patients;\n    struct Patient {\n        string name;\n        //isVerified is not needed anymore\n        //TODO:check if removing it breaks anything\n        bool isVerified;\n    }\n    \n    //patient count will be incremented by 1\n    function patientsCounter() internal {\n        patientCount += 1;\n    }\n\n    //create a patient\n    function createPatient( address _patientAddress, string memory _name) public {\n        \n        //only a doctor can create a patient\n        require(doctors[msg.sender].isVerified == true);\n        //check if patient already exists\n        require(patients[_patientAddress].isVerified == false);\n        \n        patients[_patientAddress] = Patient(_name, true);\n        patientsCounter();\n    }\n\n    //health note\n    \n    //number of health notes issued\n    uint256 public HealthNoteCount = 0;\n    //mapping of incremental numbers and health notes\n    mapping(uint256 => HealthNote) public healthNotes;\n    //struct of the healthnote issue by the doctor\n    struct HealthNote {\n        uint256 id;\n        address patient;\n        address doctor;\n        string title;\n        string description;\n    }\n\n    //increment the number of health notes1\n    function HealthNoteCounter() internal {\n        HealthNoteCount += 1;\n    }\n    \n    \n    //TODO: encrypt and store this Note somewhere that is not public \n    //but can be accessed by patient and doctor who is given permissions\n    function writeNote(\n        address _patient,\n        string memory _title,\n        string memory _description\n    ) public {\n        \n        //check if doctor is creating healthNote\n        require(doctors[msg.sender].isVerified == true);\n        \n        HealthNoteCounter();\n        healthNotes[HealthNoteCount] = HealthNote(\n            HealthNoteCount,\n            _patient,\n            msg.sender,\n            _title,\n            _description\n        );\n    }\n}",
  "sourcePath": "/Users/rajeshhegde/Code/blockchain/HealthProject/healthBlock/src/contracts/HealthCare.sol",
  "compiler": {
    "name": "solc",
    "version": "0.5.16+commit.9c3226ce.Emscripten.clang"
  },
  "schemaVersion": "3.1.0",
  "updatedAt": "2020-05-09T13:54:25.675Z",
  "networkType": "ethereum",
  "devdoc": {
    "methods": {}
  },
  "userdoc": {
    "methods": {}
  }
}